:020000040800F2
:1000000000000520395002081D3B0208213B020870
:100010002D3B0208393B0208453B02080000000066
:10002000000000000000000000000000513B02083A
:10003000553B020800000000593B02085D3B0208E6
:100040008950020889500208895002088950020824
:100050008950020889500208895002088950020814
:100060008950020889500208895002088950020804
:1000700089500208895002088950020889500208F4
:1000800089500208895002088950020889500208E4
:1000900089500208895002088950020889500208D4
:1000A00089500208895002088950020889500208C4
:1000B00089500208895002088950020889500208B4
:1000C00089500208895002088950020889500208A4
:1000D0008950020889500208895002088950020894
:1000E0008950020889500208895002088950020884
:1000F0008950020889500208895002088950020874
:100100008950020889500208895002088950020863
:100110008950020889500208895002088950020853
:10012000895002088950020889500208913B020850
:100130008950020889500208895002088950020833
:100140008950020889500208895002088950020823
:100150008950020889500208895002088950020813
:100160008950020889500208895002088950020803
:1001700089500208895002088950020800000000D6
:1001800089500208895002088950020889500208E3
:100190008950020889500208895002089D3B0208D4
:1001A000613B02086D3B0208853B0208895002084A
:0401B000793B02088D
:1001B800704700BF38B50E4A0E4B12781B680546CB
:1001C8004FF47A70B0FBF2F0B3FBF0F000F0C2F835
:1001D80008B90F2D01D9012038BD04460246294629
:1001E8004FF0FF3000F05AF8034B1D60204638BD31
:1001F80000000020200300200400002008B50B4B5D
:100208001A6842F400721A601A6842F480621A602E
:100218001A6842F480721A60032000F02DF80F204B
:10022800FFF7C8FFFFF7C4FF002008BD003C0240ED
:10023800034A044B11681B780B441360704700BFD6
:100248004029002000000020014B1868704700BFBB
:100258004029002038B50446FFF7F6FF631C054621
:1002680002D0044B1B781C44FFF7EEFF401BA04252
:10027800FAD338BD000000200749CA6803024FF6C8
:10028800FF0003F4E0630240134343F0BF6343F409
:100298000033CB60704700BF00ED00E000B51B4B9A
:1002A800DB68C3F30223C3F1070EBEF1040F03F1A9
:1002B800040C28BF4FF0040EBCF1060F1CD9A3F1A3
:1002C800030C4FF0FF3303FA0CF322EA03024FF05A
:1002D800FF3303FA0EF321EA030303FA0CF3134383
:1002E8001B010028DBB20ADB00F1604000F5614029
:1002F80080F800335DF804FB00229446E7E7044ADF
:1003080000F00F00024413765DF804FB00ED00E0F6
:10031800FCEC00E0002807DB044A4109012300F057
:100328001F00834042F82130704700BF00E100E021
:1003380000280CDB4309064900F01F002033012286
:10034800824041F82320BFF34F8FBFF36F8F704770
:1003580000E100E00138B0F1807F01D3012070474F
:1003680010B44FF0E023074C586100224FF0F00C16
:10037800072184F823C09A61196110465DF8044B7F
:10038800704700BF00ED00E02DE9F04F00238D4CD1
:1003980083B001264FF0030803E00133102B00F06F
:1003A800D6800D6806FA03F202EA050EAA43F4D1D4
:1003B8004A6802F003024FEA430C02F1FF3908FAD7
:1003C8000CF5B9F1010F6FEA050516D8826802EA43
:1003D8000509CA6802FA0CF242EA090282604A6810
:1003E800D0F80490C2F300129A4029EA0E0942EAB2
:1003F800090242604A6802F00302032A25D0C26853
:1004080002EA05098A6802FA0CF242EA0902C260A5
:100418004A6802F00302022A17D14FEAD3090F698A
:1004280000EB890903F00702920007FA02FBD9F8EA
:1004380020A00F2707FA02F22AEA020A4BEA0A0268
:10044800C9F820204A6802F0030202FA0CF2D0F838
:1004580000C00CEA05052A4302604A6812F4403FCE
:100468009BD0594D002201926A6C42F480426A6422
:100478006A6C02F480420192019A23F0030202F1AD
:10048800804203F0030C0F2702F59C324FEA8C0CD4
:1004980007FA0CF94D4F9568B84225EA09052AD0A4
:1004A80007F58067B84255D0494FB84259D0DFF8B0
:1004B800249148455CD0DFF8209148455FD0DFF8AB
:1004C8001C91484569D0DFF8189148456CD0DFF891
:1004D800149148455AD0DFF8109148456BD0DFF8A1
:1004E8000C9148450CBF4FF009094FF00A0909FA69
:1004F8000CFC45EA0C0595604A68A5686FEA0E0C85
:10050800D70254BF0CEA05054EEA0505A5604A68FE
:10051800E568920254BF0CEA05054EEA0505E56058
:100528004A686568970354BF0CEA05054EEA050555
:1005380065604D682268ED0303F1010354BF0CEABE
:1005480002024EEA0202102B22607FF42AAF03B0A7
:10055800BDE8F08F4FF0010909FA0CFC45EA0C05DB
:10056800C9E74FF0020909FA0CFC45EA0C05C2E795
:100578004FF0030909FA0CFC45EA0C05BBE74FF0FC
:10058800040909FA0CFC45EA0C05B4E74FF0070921
:1005980009FA0CFC45EA0C05ADE74FF0050909FA24
:1005A8000CFC45EA0C05A6E74FF0060909FA0CFC15
:1005B80045EA0C059FE74FF0080909FA0CFC45EAE3
:1005C8000C0598E7003C014000380240000002405A
:1005D80000080240000C02400010024000140240D3
:1005E80000180240001C0240002002400024024083
:1005F8000369194214BF01200020704702B9090499
:1006080081617047436901EA030221EA030141EA73
:1006180002418161704700BF08B516498B6803F035
:100628000C03042B1BD0082B17D14A684B68496868
:1006380013F4800302F03F0213D10F48C1F388116D
:10064800A1FB000124F080FE0A4B5B68C3F3014361
:1006580001335B00B0FBF3F008BD074808BD07484D
:1006680008BD0648C1F388110023A1FB000124F04E
:100678006BFEE9E7003802400024F40000127A001B
:10068800002800F08A802DE9F041484A136803F0F9
:100698000F038B420D46044609D2CBB21370136880
:1006A80003F00F038B4202D00120BDE8F0812368DC
:1006B800990716D55A0705D53D4A936843F4E05380
:1006C800936023681B0704D5394A936843F4604351
:1006D8009360374AA168936823F0F0030B43936053
:1006E8002368DF0721D56268012A58D0931E012BA1
:1006F8002F4B1B684ED99907D6D52D4EB36823F0DA
:1007080003031343B360FFF79FFD41F288380746A0
:1007180004E0FFF799FDC01B404545D8B3686268FF
:1007280003F00C03B3EB820FF3D1204A136803F0F4
:100738000F03AB4206D9EBB21370136803F00F0333
:10074800AB42B1D123685A0707D5194AE1689368C3
:1007580023F4E0530B43936023681B0707D5144A1F
:100768002169936823F4604343EAC1039360FFF768
:1007780053FF0F4A0F4C92680F49C2F30312034606
:10078800A25C0E48D34000680B60FFF713FD002001
:10079800BDE8F0819801B0D486E701207047044B8A
:1007A8001B689E03A9D47FE703207EE7003C024034
:1007B80000380240A0840208200300200400002022
:1007C800044B05499B68054A0868C3F38223D35C38
:1007D800D84070470038024020030020988402085F
:1007E800F0B503681E0683B0044609D5AA4A416BD2
:1007F800D2F88C3023F000630B43C2F88C300368C6
:10080800DD0509D5A44AA16BD2F88C3023F08053BA
:100818000B43C2F88C30236813F0430F40F09F80DD
:1008280013F00C0F12D11D0603D5626BB2F1006FE5
:100838000CD09D0600F1E580DB0604D5974B94F8B3
:100848003020C3F8E021002003B0F0BD944B924E55
:1008580000221A67FFF7F8FC054604E0FFF7F4FCEE
:10086800431B022B78D833689800F7D423685907BC
:100878001BD5D6F88830D6F88820216902F0E042E6
:1008880003F440331343A26943EA811343EA026342
:10089800C6F88830D6F88C30626A23F4F853013AE7
:1008A80043EA0223C6F88C3023681A071AD57A4A15
:1008B8002069D2F88830D2F8881003F4403301F068
:1008C80070610B43E16943EA801343EA0173C2F89C
:1008D8008830D2F88C30A16A23F440330B43C2F835
:1008E8008C3023681B0617D5636BB3F1006F13D1E7
:1008F80069496269D1F88830D1F8880003F07063DB
:1009080000F0E04003432069520843EA8013013AAB
:1009180043EA0243C1F88830614B5F4E01221A67EF
:10092800FFF792FC054604E0FFF78EFC401B022807
:1009380012D833689F00F7D523687AE7FFF784FC5D
:1009480041F2883706462B6F9A0700F19080FFF72F
:100958007BFC801BB842F6D9032003B0F0BD504B96
:100968004D4E00229A66FFF76FFC054604E0FFF73C
:100978006BFC431B022BEFD833681801F7D42368AC
:10098800D90707D5D4E901231B0743EA8213C6F820
:10099800843023689A0716D53F4AE368D2F8841052
:1009A80060681B0601F0E04143EA80130B43C2F87C
:1009B8008430D2F88C10236A21F01F01013B0B43CD
:1009C800C2F88C3023685B0609D5201D0BC81B06AE
:1009D800314A43EA801343EA0173C2F88430304B4A
:1009E8002D4E01229A66FFF72FFC054604E0FFF71B
:1009F8002BFC401B0228AFD833681F01F7D52368AA
:100A08000EE7254B274D002201921A6C42F08052C6
:100A18001A641B6C03F080530193019B2B6843F409
:100A280080732B60FFF710FC064604E0FFF70CFC10
:100A3800801B022890D82B68D805F7D5164DE26A96
:100A48002B6F13F4407302F4407113D08B4211D012
:100A58002B6F134A0121C2F8401E23F44073002172
:100A6800C2F8401E2B672B6FD9073FF567AFE26AC4
:100A780002F44071B1F5407F16D0074A936823F419
:100A8800F8139360044AE36A116FC3F30B030B4333
:100A980013672368D0E600BF0038024000104742C1
:100AA800000047420070004005498B6822F0704200
:100AB80022F4407223F4F81313438B60E2E700BF7B
:100AC80000380240244B40F2BF120260D3F8842061
:100AD800C2F388124260D3F88420C2F302728260A3
:100AE800D3F88420C2F30362C260D3F88820C2F32B
:100AF80088120261D3F88820C2F30272C261D3F867
:100B08008820C2F303628261D3F88C2002F01F02AE
:100B18000262D3F88C20C2F304224262D3F88C20FC
:100B280002F44032826299681A6F01F4F81102F4F3
:100B380040720A43C262D3F88C2002F0006242631A
:100B4800D3F88C2002F080528263D3F88C30C3F340
:100B5800006380F83030704700380240002800F009
:100B6800E6812DE9F0410368DD0782B0044631D5FE
:100B78009E498A6802F00C02042A00F0F0808A6814
:100B880002F00C02082A00F0E6806368B3F5803FA3
:100B980000F0EF80B3F5A02F944B1A6800F0808125
:100BA80022F480321A601A6822F480221A6063687C
:100BB800002B00F00581FFF747FB8C4E054605E04A
:100BC800FFF742FB401B642800F2F68033689B0362
:100BD800F6D52368990728D5844B9A6812F00C0F2C
:100BE80000F09D809A6802F00C02082A00F09380B9
:100BF800E368002B00F00C817D4B7C4E01221A60CB
:100C0800FFF722FB054605E0FFF71EFB401B022805
:100C180000F2D28033689F07F6D53368226923F043
:100C2800F80343EAC203336023681A075ED45D07FA
:100C38003CD56E4A136C13F0805340F08A800193C0
:100C4800136C43F080531364136C03F080530193C7
:100C5800019B0125674E3368D80540F19D80A36844
:100C6800012B00F0E680052B604B1A6F00F02681FF
:100C780022F001021A671A6F22F004021A67A368A9
:100C8800002B00F0AB80FFF7DFFA584F064641F221
:100C9800883805E0FFF7D8FA801B404500F28C80C1
:100CA8003B6F9A07F6D5002D40F00281A369CBB1BE
:100CB8004E4DAA6802F00C02082A00F0C080022BF0
:100CC8004B4B4FF000021A6600F00081FFF7BCFAA8
:100CD800044604E0FFF7B8FA001B02286CD82B681A
:100CE8009B01F7D4002002B0BDE8F0816369FBB135
:100CF8003F4B3E4E0122C3F8802EFFF7A5FA05466A
:100D080004E0FFF7A1FA401B022855D8736F9B0730
:100D1800F7D523688BE75B685A023FF569AF334B19
:100D28001B689B072BD5E368012B28D00120DAE745
:100D38002F4A2E4EC2F8803EFFF786FA054604E099
:100D4800FFF782FA401B022836D8736F9F07F7D443
:100D5800DFE700257EE74A6851027FF516AF234A90
:100D6800126892037FF536AF6268002A7FF432AFCB
:100D7800DCE71E4A136843F48033136017E71B4A05
:100D88002169136823F0F80343EAC1031360236859
:100D98001A077FF54CAFA9E7336843F480733360D3
:100DA800FFF752FA07463368D9053FF558AFFFF702
:100DB8004BFAC01B0228F6D9032002B0BDE8F08127
:100DC800FFF742FA094E054604E0FFF73DFA401BDB
:100DD8006428F1D833689F03F7D4FAE6FFF734FAAA
:100DE800024F064641F288380BE000BF0038024047
:100DF8000000474200700040FFF726FA801B40457C
:100E0800DAD83B6F9B07F7D4002D3FF44FAF4FE084
:100E1800484A494E1360FFF717FA054604E0FFF702
:100E280013FA401B0228C7D833689907F7D42368F8
:100E3800FBE6414A136F43F0010313671FE7012BD9
:100E48003FF474AF6B68E26903F4800191427FF468
:100E58006DAF226A03F03F0191427FF467AF616A88
:100E680047F6C0721A40B2EB811F7FF45FAFA26AE7
:100E7800520803F44031013AB1EB024F7FF456AF08
:100E8800E16A03F07062B2EB016F7FF44FAF226B3F
:100E980003F0E043B3EB027F14BF0120002022E7F8
:100EA80042F480221A601A6842F480321A607EE6A0
:100EB800214A136C23F080531364F7E642F00402CE
:100EC8001A671A6F42F001021A67D8E6FFF7BCF9F1
:100ED800064605E0FFF7B8F9801B02283FF66CAF1D
:100EE8002B689901F6D4D4E90731626A0B4343EAC7
:100EF8008213D4E90A20216B43EA0063520843EACB
:100F08000173013A0B4943EA024301226B600A6606
:100F1800FFF79AF9084D044605E0FFF795F9001B1D
:100F280002283FF649AF2B689A01F6D5DAE6012088
:100F3800704700BF000047420038024030B583B018
:100F4800194B1A491A4D002201921A6C42F080522C
:100F58001A641B6C03F0805301930122019B0A64FD
:100F6800FFF772F9044605E0FFF76EF9001BB0F5CC
:100F78007A7F16D86B68DA03F6D50C4B0C4D012234
:100F88005A64FFF761F9044605E0FFF75DF9001BB5
:100F9800B0F57A7F05D86B689B03F6D5002003B0BF
:100FA80030BD032003B030BD0038024000000E42BF
:100FB8000070004038B50446FFF746F9002C77D09A
:100FC80022680023022184F8351084F8343013682D
:100FD80023F001030546136004E0FFF735F9431BCE
:100FE800052B50D823681A68D107F6D4D4E9012014
:100FF800E1681D6802430A43D4E9040102430A4335
:10100800D4E9060102430A43216A606A0A43324965
:10101800042801EA050142EA010203D1D4E90B10D0
:1010280001430A431A602168626A4B69042A23F063
:10103800070343EA02030AD1D4E90A20134330B173
:10104800A5693DBB012A43D032F0020229D04B6189
:101058002368224AD9B21039A2FB0102120920489A
:1010680023F47F73855CE56523F003035F2988BF5C
:1010780004333F22AA40A36500209A6001236065DB
:1010880084F8353038BD03232022626584F8353072
:10109800184638BDB5F5005F0CD0022A03D9032ADB
:1010A800D5D1C201D3D540220123626584F83530F9
:1010B800012038BD032ACAD801A555F822F000BF7F
:1010C800AF100008AB100008AF100008D9100008D6
:1010D800B0F1C07FBBD1E6E73F8010F0ABAAAAAA67
:1010E8004056020800283FD090F83520022A0346CF
:1010F800D0B238D030B41868016821F0010101601D
:10110800196800220A6019684A6019688A601968B3
:10111800CA6019680A61196821244C611968134C5E
:10112800C8B21038A2F15532A2FB0052120921F4BC
:101138007F71A55CDD65002221F003015F28C3E90A
:101148000F22C3E9112288BF04313F24AC409965BE
:10115800DA641A658C605A6583F8342083F8352080
:10116800104630BC7047704701207047405602084F
:1011780070B590F834C0846DBCF1010F0AD090F8B6
:1011880035C04FF0010EF44580F834E004D0002358
:1011980080F83430022070BD022580F8355006688A
:1011A80000254565356825F48025356005686B6040
:1011B8008368402B036819D099600368DA60C26DB0
:1011C8003F239340A3600268136843F0160313603B
:1011D800036C23B10268136843F0080313600268C4
:1011E800136843F001031360002070BD9A60036820
:1011F800D960E4E770B50446866DFFF725F894F8E2
:101208003530022B06D080236365002384F8343000
:10121800012070BD2268136823F01603136022684A
:10122800536923F080035361236C054653B3226846
:10123800136823F0080313602268136823F001037E
:10124800136004E0FFF700F8431B052B10D8236850
:101258001B6813F00103F5D1E16D3F228A4018465F
:1012680001210023B26084F8351084F8343070BD51
:10127800032320226265184684F83530002384F859
:10128800343070BDA36C002BD1D1D5E790F8353040
:10129800022B03D080234365012070470268052391
:1012A80080F83530136823F001030020136070477D
:1012B800F0B583B06D4A876D166800230193C36D3E
:1012C8003D68082202FA03F12942044604D0016865
:1012D8000868400700F19E8001229A402A4204D003
:1012E80021684969090600F18E8004229A402A4241
:1012F80003D02168096888077ED410229A402A42C0
:1013080003D021680968090764D4202202FA03F38C
:101318002B4215D022681268D50611D5BB6094F807
:101328003530052B35D023681A68500340F1868084
:101338001B68190340F19180E36B0BB12046984775
:10134800636D002B44D0636DDA071BD522684849CA
:10135800052384F835301368A1FB061623F0010332
:10136800B60A136003E023681B68DB0704D5019BFA
:101378000133B3420193F6D90122002384F83520C2
:1013880084F83430E36C1BB3204603B0BDE8F0406A
:1013980018472268136823F01603136022685369FC
:1013A80023F080035361236C002B5BD02268136801
:1013B80023F008031360E26D3F239340BB60236D65
:1013C8000121002284F8351084F83420002BDBD169
:1013D80003B0F0BDBA6023681A68500327D41A68AE
:1013E800D20503D41A6822F008021A60236C0BB1E4
:1013F80020469847E36D88E7BA60636D43F00403BD
:101408006365E36D79E7BA60636D43F00203636572
:10141800E36D6AE70B6823F004030B60E36D9A4001
:10142800BA60636D43F001036365E36D54E71B68BD
:101438001903DBD5A36C002BDAD1DBE71A6812F4A9
:1014480080727FF479AF196821F0100119600123C7
:1014580084F8353084F834206EE7636C002B7FF411
:101468006DAF6DE7A36C002BA0D1A4E7200300208B
:10147800B5814E1B30B4029C056844EA03436C6C8A
:1014880004F0404C43EA0C036B640368DA63436876
:10149800B3F5403F03D00368D96030BC7047836818
:1014A800B3B1012B18D0022B01F47F0201F47F4560
:1014B800CCB21FD0032B01F07F4110D0130D2D0BA0
:1014C8001B0243EA051343EA1413090F43EA0131E7
:1014D8000368996330BC704721F07F41F8E7D30C6B
:1014E800ED0A9B0243EA451343EAD403C90F43EAD2
:1014F800C131EDE7D30CAD0ADB0243EA451343EAF9
:10150800D401E5E7704700BF58B310B590F83930FB
:10151800044603F0FF02FBB122686168022384F8E5
:101528003930136823F440330B4313602268A168F1
:10153800536B23F007030B4353632268E168136C72
:1015480023F47F5323F03F030B431364002001234C
:10155800E06384F8393010BD80F83820FFF7D2FFF7
:10156800DAE70120704700BF90F838C0BCF1010FDE
:1015780015D030B583B04FF0010C069D009580F86A
:1015880038C04FF0020C80F839C0FFF773FF0268CB
:101598001368002043F00103136003B030BD02203C
:1015A800704700BF70B582B00022036801921A68C4
:1015B800D20705460C460FD4DA69596A0A439206DF
:1015C80033D4122101229960002085F839200023A4
:1015D80085F8383002B070BDFEF736FE06462B6837
:1015E80001E0601C4CD15A689107E5D45A68019211
:1015F800019A12F0210FF4D0019A960603D5EA6BEE
:1016080042F00202EA63019AD40703D5EA6B42F07A
:101618000102EA6321210422996085F8392001201A
:10162800002385F8383002B070BDFEF70DFE06467F
:101638002B6801E0611C33D15A68D206C1D45A68BC
:101648000192019A12F0290FF4D0019A160703D5D6
:10165800EA6B42F00402EA63019A940603D5EA6B46
:1016680042F00202EA63019AD00703D5EA6B42F01E
:101678000102EA6329210422996085F83920CEE71E
:10168800FEF7E2FD801BA04201D8002CA7D1EB6B2E
:10169800032243F02003EB63032085F8392096E703
:1016A800FEF7D2FD801BA042F1D8002CC0D1EEE796
:1016B800704700BF704700BF70B503685D681E685B
:1016C800EA07044601D5F1055AD4AA0601D5B304A0
:1016D8003ED4280701D5310522D46A0701D5730500
:1016E80078D4A80701D5B10504D4EA0601D5F304D6
:1016F8005CD470BD2268136823F4007313602368F8
:1017080002229A60E26BE2632369012284F839209D
:10171800002284F83820002BE7D020469847E4E7D9
:101728002268136823F400631360236808229A6010
:10173800E36B626943F00403E3630421002384F844
:10174800391084F83830002AC7D020469047C4E7BB
:101758002268136823F400531360236820229A60D8
:10176800E36B626943F00203E3630421002384F816
:10177800391084F83830002AABD020469047A8E7C3
:101788001A6822F480721A60C36B43F00103C363C2
:10179800036801229A60042380F83930002380F816
:1017A80038304369002B90D098478EE72268136839
:1017B80023F480531360236810209860E26BE2637F
:1017C8000121002384F8383084F839102046FFF7C7
:1017D80071FF70BD2268136823F480631360236867
:1017E80004229A602046FFF763FF7AE790F83820D2
:1017F800012A49D010B5034600EB011E0222012040
:1018080083F8380083F83920DEE9070240EA02420B
:1018180009380128DEF824009ABF00F07F4002430F
:1018280042EA00624FEA011C1868B9B9446A1749CC
:101838002140114341621A6899699161DA69093A4C
:10184800012A04D85A6A196822F07F428A62002065
:10185800012283F8392083F8380010BDC4690B4988
:1018680021401143C1619C441A68DCF818101161C9
:10187800DCF81C20093A012AE9D8DEF82420196886
:1018880022F07F420A62E2E702207047F0FFFC0084
:10189800704700BFF0B138B590F82C300D460446BB
:1018A80003F0FF028BB12146022384F82C3051F853
:1018B800040B01F065FCD4E90002294601F098FC0C
:1018C800012384F82C30002038BD80F82D20FFF744
:1018D800DFFFE8E70120704770B590F82C30022B45
:1018E8000546D8B204D000F0FB04012C01D0012039
:1018F80070BD0E46022385F82C30286801F0C2FC22
:101908003368022B06BF052385F82C3085F82C4058
:10191800002070BD38B590F82C30022B0446D8B2A0
:1019280005D094F82C30012BDDB201D0012038BD50
:101938000223206884F82C3001F0CAFC84F82C506B
:10194800002038BD70B5D30104684E68E26884335E
:101958001C44C2F30B42656805F470456560056870
:1019680094190A6802F1010CEA68C2F30B421D449B
:10197800624442EA04426A600468E26804EB030EC7
:10198800C2F30A0CDEF80820CC6802F47042CEF8E4
:101998000820A44404688A68E5680132C5F30A058A
:1019A8001C442A4442EA0C42A26002681A441469A0
:1019B80024F00704146102680C691A4414618D69E3
:1019C80091F83020046842EA056291F8315042EA01
:1019D800052291F832501C4442EA0542A26102688D
:1019E8001A44546924F0FF04546102684C691A448B
:1019F800546104681C44E26922F4E06222F00702A0
:101A0800E2610268CC690D6A1A442C43D461026809
:101A18004C6A1A4494620A694AB1012A2ED0941E6B
:101A2800022C2DD9072A14BF0124022400E0042423
:101A380002681A44D56A05F0E025D5620268D5180F
:101A4800D1E90062921B8E6A04FB02F2033206FBA4
:101A580004F442EA0442EA6204681C44226B22F459
:101A6800FF6222F0070222630268C96A1A441163FE
:101A78000168CA5842F00102CA5070BD0324D7E772
:101A88000224D5E7704700BF00285DD038B590F82C
:101A9800A130044603F0FF02002B50D02268022335
:101AA80084F8A130936923F070439361D4E901313C
:101AB800D4E9035022680B432B43916903430B433A
:101AC8009361D4E90513226843EA01439360D4E99A
:101AD8000713226843EA0143D360D4E90913226853
:101AE80043EA01431361D4E90B13226843EA014333
:101AF8005361226894F83500D36A94F8361003F0DD
:101B08007F43D362226894F83430D56A2B4343EA82
:101B1800002343EA0143D36221684B6B43F0060379
:101B28004B6321688B694FF0010C002243EA0C03D8
:101B38008B61C4F8A42084F8A1C0104638BD80F891
:101B4800A020FFF79FFFA9E701207047704700BF5B
:101B5800704700BF704700BF70B503689D6B5E6B30
:101B68006A07044601D571071ED4AA0701D5B30731
:101B78002FD4E80701D5F10743D42A0701D5330745
:101B880000D470BD2268536B23F0080353632368A5
:101B98000820D8630121002384F8A11084F8A0301C
:101BA8002046FFF7D7FF70BD5A6B22F004025A6334
:101BB80003680422DA63D0F8A43043F00103C0F8C4
:101BC800A430002380F8A12080F8A030FFF7BEFFE2
:101BD800CBE72268536B23F0020353632368022286
:101BE800DA63D4F8A43043F00203C4F8A430042222
:101BF800002384F8A12084F8A0302046FFF7A6FF30
:101C0800B7E72268536B23F001035363226801236B
:101C1800D363002284F8A13084F8A0202046FFF77F
:101C280097FFAAE7F8B590F8A030012B2ED001272E
:101C3800022380F8A07080F8A1304FF0340C8E4653
:101C480004460D4616460CFB020CBEE80F000CF1CC
:101C5800380CACE80F00BEE80F00ACE80F00BEE897
:101C68000F00ACE80F00DEF80030CCF80030324648
:101C780020462946FFF766FE2268002357621A4667
:101C880084F8A17084F8A0301046F8BD02221046EE
:101C9800F8BD00BF10B44A6A003A18BF01225207C3
:101CA800C2600A6AB2FA82F20346520992079A603F
:101CB800CA69B2FA82F25209D2075A604A6B013AEB
:101CC8009A61D1E90D242244013A1A62D1E90D241E
:101CD80022440C6C013A22449A62D1E90D24224430
:101CE800D1E90F14013A22440A441A6300205DF82E
:101CF800044B7047704700BF002800F0058170B59D
:101D0800437C84B00D460446002B00F0FA8022681C
:101D18000321002361740093D2F8303443F08073B8
:101D2800C2F830342368D3F8303403F0807300935A
:101D3800009BFEF789FA064606E0FEF785FA801B47
:101D4800B0F57A7F00F2E4802368D3F80C24D0043D
:101D5800F3D5D3F8302422F45E3222F4FE72C3F8AD
:101D68003024D5E900032268DB0243EA8003A8682F
:101D7800D2F8301443EA00430B43C2F830342268E7
:101D880000230193D2F8303401200343C2F83034E1
:101D98002368D3F8303403400193019BFEF75AFAC5
:101DA800FEF752FA064606E0FEF74EFA801BB0F53B
:101DB8007A7F00F2AD802368D3F80C24D105F3D5DF
:101DC800002202925A6842F001025A6023685A6857
:101DD80002F001020292029A9A6822F0FF029A60C7
:101DE8002268A16893680B4393602268D2F8A030F8
:101DF80043F00203C2F8A0302268D2F8A03043F0C2
:101E08000403C2F8A0302268D2F8A43023F00303F8
:101E1800C2F8A4302268E168D2F8A4300B43C2F8B3
:101E2800A430FEF711FA2368D3F8A42092070646D7
:101E380060D1D3F8B02002F01402142A0CD0FEF7B7
:101E480003FA801BB0F57A7F60D82368D3F8B020F6
:101E580002F01402142AF2D16A682F492868012A6C
:101E680038BF012201FB02F2A96801F003018A4090
:101E78004FF4FA5101FB00F0D3F81814B2FBF0F25A
:101E880021F03F01C3F818142068D0F818140A4349
:101E9800C0F8182422680023C2F8C4302268C2F8A7
:101EA800C83021680393A3614A6822F001024A609E
:101EB8002268516801F0010103910399D2F8941046
:101EC80021F00301C2F89410D4E90010D1F894204D
:101ED800024342F0010201251846C1F894206361CB
:101EE800657404B070BDFEF7AFF9801BB0F57A7F5A
:101EF8000CD82368D3F8B02002F09402942AF2D1C7
:101F0800AAE7FFF7F7FE02E70120704700232374D2
:101F1800032004B070BD00BF00093D00704700BF3A
:101F280000284AD030B585B00268002503234374E1
:101F38000095D2F8043423F00803C2F80434036887
:101F4800D3F8042402F008020092009A01955A6816
:101F580022F001025A6003685A6802F001020192F5
:101F6800019AD3F8A02022F00602C3F8A020026844
:101F78000295D2F8303423F00103C2F830340368F4
:101F8800D3F8302402F001020292029A0395D3F8A2
:101F9800302422F08072C3F830240368D3F8303438
:101FA80003F0807304460393039BFFF7B7FF2846AB
:101FB80065612574657405B030BD0120704700BFA8
:101FC800704700BF704700BF704700BF10B5036877
:101FD800D3F80C24D107044603D5D3F80824D20734
:101FE80062D4D3F80C24910703D5D3F808249207B8
:101FF8004FD4A369002B4BD02168D1F8BC20D1F86D
:10200800C400D1F8C030D1F8C81002400B4091B2DA
:1020180019B1616941F00101616112F4F81F03D03F
:10202800626942F002026261D80703D5626942F030
:1020380004026261990703D5626942F0080262618D
:1020480013F00C0F03D0626942F010026261DA06E5
:1020580003D5626942F020026261980603D562697D
:1020680042F040026261590603D5626942F080027B
:1020780062611A0603D5626942F48072626113F4E0
:10208800F85F03D0636943F40073636163693BB924
:1020980010BD0222C3F810242046FFF793FFA8E7DB
:1020A8002046FFF791FF10BD0122C3F81024FFF767
:1020B80087FF236895E700BF027C012A00F028818A
:1020C80030B40346012200681A74426B22F0010200
:1020D80042631868D0F8002422F00102C0F80024F6
:1020E8001868826B22F0030282631868CC68826BDE
:1020F800224382631868C26B22F47F5222F03F02A7
:10210800C26318680C69C26B2243C2631868814CA9
:10211800026C2240026418684D69026C2A4302640A
:102128001868426C2240426418688C69426C2243E9
:1021380042641868C26822F00302C26018680C681A
:10214800C2682243C2601868426922F007024261ED
:102158000D6A4A6A18682A43CD6944692A432243AA
:1021680042611868026922F00F02026118684C681F
:102178000269224302611868D0F8002422F00E0296
:10218800C0F8002418684C68D0F8002442EA4402D9
:10219800C0F800244A68032A09D11868026922F4A1
:1021A8008072026118688C680269224302611868AB
:1021B800594C826C2240826418688D6A826C2A436A
:1021C80082641868C26C2240C2641868CC6AC26C07
:1021D8002243C2641868026D22F4FF4222F07F0293
:1021E800026518680C6B026D224302651C684B4837
:1021F800626D024062651C684D6B626D2A436265C0
:102208001C68A26D0240A2651C68A26D8D6B2A43F2
:10221800A2651C68E26D0240E2651868CC6BC26D6D
:102228002243C2651868026E22F47F5222F03F02F0
:10223800026618680C6C026E224302661868826B8C
:1022480022F40042826318684C6C826B22438263DA
:102258001868826922F47F02826118688C6C82692E
:1022680042EA044282611868826922F0FF028261B0
:102278001868CC6C8269224382611868826B22F4E8
:102288000052826318680C6D826B2243826318685F
:10229800826B22F48052826318684C6D826B2243F1
:1022A80082631868826B22F40062826318688C6DFE
:1022B800826B224382631868826B22F48062826395
:1022C8001868826BCC6D224382631868826B22F493
:1022D8000072826318680C6E826B224382631868EE
:1022E800826B22F48072826318684C6E826B224380
:1022F80082631868826B22F48042826318688C6E4D
:10230800826B0021224382631974084630BC7047EF
:102318000220704700E0FFFF00F0FFFF00FCFFFF16
:10232800027C012A034610D0006801221A74C26A8E
:1023380022F01F02C2621868C26A4FF0000C0A43FA
:10234800C262604683F810C070470220704700BF21
:10235800027C012A40D010B40122027403460468AA
:10236800D1E90002904238BF1046D4F8982002F014
:10237800FC22C4F898201C68D4F8982042EA00424D
:102388000243C4F898201868D0F89C2002F4004250
:10239800C0F89C20D1E902241206186842EA0442D7
:1023A8000C692243D0F89C402243C0F89C2018684E
:1023B800D0F8A42022F47F42C0F8A42018684C6901
:1023C800D0F8A420002142EA0422C0F8A4201974FD
:1023D80008465DF8044B704702207047027C012ACA
:1023E80025D010B4034683B0006800220121009272
:1023F8001974416841F00101416019684C6804F0A2
:1024080001040094009C0192D1F8044444F00804AB
:10241800C1F804441968D1F804141A7401F00801C9
:102428000191019B104603B05DF8044B70470220F0
:10243800704700BF027C012A25D010B4034683B040
:1024480000680022012100921974416821F00101FD
:10245800416019684C6804F001040094009C0192E2
:10246800D1F8044424F00804C1F804441968D1F8E8
:1024780004141A7401F008010191019B104603B07D
:102488005DF8044B70470220704700BF2DE9F84300
:102498000546007C012822D0994601232B748846E2
:1024A8001746FDF7D1FE064606E0FDF7CDFEA0EB88
:1024B800060CBCF57A7F10D82C68636FDB07F4D55F
:1024C800089A47EA092343EA024343EA8813E36682
:1024D800002000232B74BDE8F8830320F9E70220CD
:1024E800BDE8F8832DE9F0471E46037CDDF820A0FF
:1024F800012B5CD00123037405460F469046FDF777
:10250800A3FE814606E0FDF79FFEA0EB0900B0F5AB
:102518007A7F48D82B685C6F14F00104F3D0032E3F
:10252800304628BF0320002E44D0099A541E0022AA
:10253800013214F8011F4FEAC20C01FA0CF1824271
:102548004AEA010AF4D3C3F870A0099B1A18301A92
:1025580018D0042881464FF0000E28BF4FF0040918
:10256800144673464A4414F801CB0CFA0EFCA242F6
:1025780043EA0C030EF1080EF5D12968B0EB090007
:102588000B67E6D10136320248EA871392B2360267
:102598002968134306F47F0600223343CB662A7466
:1025A8001046BDE8F0872C740320BDE8F0870220B0
:1025B800BDE8F087C3F870A0E4E700BF2DE9F84351
:1025C8001D46037CDDF82090012B00F08D8001234F
:1025D800022D06460F461446037410D8B9F1060FAB
:1025E8002AD0B9F1040F6BD0B9F1140F7FD0B9F12B
:1025F800240F6BD0002333740120BDE8F883FDF766
:1026080023FE804606E0FDF71FFEA0EB0800B0F5AC
:102618007A7FEFD833685A6FD007F4D52A0202F4CC
:102628007F02290242EA871289B20A4342F037023E
:10263800B9F1060FDA66D4D1099B32681B0243EA66
:10264800871343F00603D366FDF7FEFD002D07460A
:1026580032DD33680FE0FDF7F7FDC01BB0F57A7F78
:1026680025D833685A6F510603D4D3F8C020920690
:10267800C0D4002D20DD596F11F01001EBD1042DCD
:10268800AC46186F28BF4FF0040C04EB0C0220FA7C
:1026980001F304F8013B944201F10801F7D1A5EBDD
:1026A8000C05FDF7D1FDC01BB0F57A7FD9D9002301
:1026B80033740320BDE8F88300203074BDE8F88344
:1026C8003368BF0147F00407DF66BDE70A9932683F
:1026D8004978BB0143EA01430A99097843EA01238F
:1026E80043F02403D366AFE70220BDE8F8830A99D4
:1026F80032680978BB0143EA012343F01403D36627
:10270800A2E700BF2DE9F8430D46814616461F464D
:102718004FEA1148D9F8002001E07B1C13D1B8F129
:10272800010F0BBF5369946925EA030C25EA040CD1
:102738001FFA8CFCBCFA8CFC4FEA5C1CB445ECD04C
:102748000020BDE8F883FDF77FFD089BC01AB8425A
:1027580020D9D9F80030B8F1010F0CBF5B699B692B
:1027680025EA03039BB2B3FA83F35B09B342D1D1E1
:1027780000222023C9F8302089F83D3089F83E200E
:10278800D9F8403089F83C2043F02003C9F840309C
:102798000120D6E7002FBDD1DBE700BF2DE9F843C4
:1027A800804604680E461746994604E065696A053E
:1027B80009D47B1C23D1606926EA000080B2002876
:1027C800F4D1BDE8F883236843F400732360D8F894
:1027D8000010002220236FF480604861C8F8302080
:1027E80088F83D3088F83E20D8F8403043F004039C
:1027F800C8F84030002388F83C300120E1E7FDF7B5
:1028080023FDA0EB0900B842D8F8004001D8002FFA
:10281800D1D1636926EA03039BB2002BCBD00023F6
:102828002022C8F8303088F83D2088F83E30D8F8A3
:1028380040301343C8F84030DCE700BFF8B5036800
:1028480006465869400624D40D4617460DE0FDF7A4
:10285800FBFCC01BA842336800D81DB95C6914F0A2
:10286800400418D05A69520613D45A69D106EED5D5
:1028780000226FF0100020215861326386F83D1065
:1028880086F83E20336C3364002386F83C30012000
:10289800F8BD0020F8BD2023346386F83D3086F863
:1028A8003E40336C43F020033364EDE7F8B505464A
:1028B80004680E46174601E0731C1AD1636913F0C9
:1028C800800314D160694205F6D56FF48061202237
:1028D80061612B6385F83D2085F83E302B6C43F011
:1028E80004032B64002385F83C300120F8BD002048
:1028F800F8BDFDF7A9FCC01BB0422C6801D8002E1A
:10290800DCD1636913F08003D8D120222B6385F8CA
:102918003D2085F83E302B6C13432B64E2E700BF63
:10292800F8B5054604680E46174601E0731C1AD12F
:10293800636913F0040314D160694205F6D56FF496
:102948008061202261612B6385F83D2085F83E3047
:102958002B6C43F004032B64002385F83C300120E2
:10296800F8BD0020F8BDFDF76FFCC01BB0422C6815
:1029780001D8002EDCD1636913F00403D8D12022DA
:102988002B6385F83D2085F83E302B6C13432B6470
:10299800E2E700BF2DE9F04F914602689B461368B5
:1029A80083B043F4807313600C9EDDF834A005688F
:1029B8000746884601E0701C0ED16C69E307FAD51A
:1029C80008F0FE032B613149534632463846FFF77B
:1029D800E5FE00B301241AE0FDF736FCA0EB0A007F
:1029E80086423D6830D26B69D907E6D4002220239D
:1029F8003A6387F83D3087F83E203B6C87F83C20E7
:102A080043F020033B642B68DA0523D403242046D3
:102A180003B0BDE8F08F3B680190596901919B694B
:102A28000193524631463846019BFFF73FFF044663
:102A380010BBBBF1010F3B6810D15FFA89F2204649
:102A48001A6103B0BDE8F08F002EB6D16B69D907C3
:102A5800B3D4CBE74FF400733B64D7E74FEA1920B0
:102A68001861524631463846FFF720FF20B93A68C8
:102A78005FFA89F31361CAE73B6C042BAAD13A6861
:102A8800136843F400731360A4E700BF0200010059
:102A98002DE9F04F914602689B46136843F4806322
:102AA80013600268136885B043F4807313600E9E48
:102AB800DDF83CA005680746884601E0741C4BD148
:102AC8006C69E207FAD508F0FE032B6144495346C6
:102AD800324638465FFA88F8FFF760FE002868D16A
:102AE8003B680390596903919B69039352463146A9
:102AF8003846039BFFF7DAFE002852D1BBF1010FDD
:102B08003B6858D15FFA89F21A6152463146384615
:102B1800FFF7CCFE002844D102463868016841F42A
:102B2800807101603346CDF800A04FF0011138469E
:102B3800FFF7E8FD00284DD13A68294948F001031C
:102B48001361384653463246FFF728FE003818BF4F
:102B5800012005B0BDE8F08FFDF776FBA0EB0A0079
:102B680086423D6817D26B69D807A9D40022202372
:102B78003A6387F83D3087F83E203B6C87F83C2065
:102B880043F020033B642B68D90502D54FF400734A
:102B98003B640320DDE7002E92D16B69D8078FD400
:102BA800E4E73B6C042B04D13A68136843F40073E0
:102BB80013600120CDE74FEA19221A6131465246C7
:102BC8003846FFF773FE0028EBD13A685FFA89F3BD
:102BD80013619AE73B681B68DB05DAD5D6E700BFC7
:102BE80002000100704700BF002800F0B08070B5F7
:102BF80090F83D30044603F0FF02002B00F093806C
:102C08002268242384F83D30136823F001031360FD
:102C18002268136843F4004313602268136823F49E
:102C280000431360FDF7CCFD4A4B62689A4237D9DE
:102C3800494B984237D9256848496A68A1FB003151
:102C480022F03F0242EA91426A608B0C2168414DB2
:102C580066680A6AAE4222F03F0207D9404D4FF437
:102C6800967C0CFB03F3A5FB03539B090133134329
:102C78000B62D4E90021374DD369A94223F44F43AD
:102C880000F1FF3023F0FF030FD84900B0FBF1F04B
:102C980040F6FC710130084255D0C0F30B0014E037
:102CA800304B9842C7D8012070BDA568002D3FD091
:102CB80001EB810101EB8101B0FBF1F00130C0F3C0
:102CC8000B00002841D040F440400343D361216801
:102CD800206A0A68E36922F0C002034313430B60C9
:102CE8002168E0688A68236922F40342034322F0DA
:102CF800FF0213438B602168A069CA68636922F0E8
:102D0800FF0203431343CB6021680A680023202590
:102D180042F001020A60236484F83D50236384F87A
:102D28003E30184670BD80F83C20FFF75BFF67E730
:102D380001EB4101B0FBF1F00130C0F30B0020B111
:102D480040F40040C1E70420BFE70120BDE70120AF
:102D5800704700BFA0860100FF083D0083DE1B43CB
:102D6800D34D62107F841E00704700BFB0B110B50C
:102D78002423026880F83D30136823F001030446D9
:102D88001360FFF7F1FF0023236484F83C3084F8D4
:102D98003D30236384F83E30184610BD012070474B
:102DA8002DE9F047044682B09946BDF82CA00C9E48
:102DB8000F469046FDF748FA94F83D30202B03D093
:102DC800022002B0BDE8F087054600903F4919236C
:102DD80001222046FFF796FC0028F1D194F83C30F8
:102DE800012BEDD00123206884F83C300368D90713
:102DF8005CD53946076827F4006707600A9860625F
:102E08002120CDE9006584F83D00402084F83E008B
:102E180000202064A4F82AA0608D20852C48E06258
:102E28004B4642462046FFF7B5FD00284CD1238D7E
:102E3800002B28D02A4631462046FFF737FD0028C8
:102E48003AD1626A236812781A61628D238D606AAA
:102E58002168013B013A92B29BB2471C2385676205
:102E680062854A695207E3D56BB143780B61628D7D
:102E7800238D616A013B013A9BB2013192B26162D2
:102E880023856285D4E72A4631462046FFF748FD68
:102E980090B922681368202143F40073136084F802
:102EA8003D1084F83C0084F83E008AE7036843F04C
:102EB8000103036020689CE7236C042B04D122687B
:102EC800136843F40073136001207AE702001000CE
:102ED8000000FFFF2DE9F047044686B09946BDF88B
:102EE8003CA0109E0F469046FDF7AEF994F83D3091
:102EF800202B05D04FF00208404606B0BDE8F08709
:102F0800054600909949192301222046FFF7FAFB4C
:102F18000028EFD194F83C30012BEBD00123206836
:102F280084F83C300368DB0733D53946076827F453
:102F3800006707600E9860622220CDE9006584F87A
:102F48003D00402084F83E0000202064A4F82AA018
:102F5800608D20858648E06242464B462046FFF752
:102F680097FD804678B9238D2268C3B1012B00F004
:102F7800EB80022B00F0D68005905169059192698B
:102F88000592059A18E04FF00108404606B0BDE8E2
:102F9800F087036843F0010303602068C5E70293E4
:102FA8005369029393690293029B136843F4007375
:102FB8001360238D002B50D06E4F032B56D8012B56
:102FC80000F0A380022B009533464FF000023946EB
:102FD80020467ED0FFF796FB02460028D3D1216811
:102FE8000B6823F480630B602168636A09691970B0
:102FF800616A638D01316162013B218D9BB26385FA
:103008004B1E23853946009533462046FFF77AFB49
:103018000028B8D12268136843F40073136022684B
:10302800636A12691A70616A638D20684A1C626259
:10303800013B228D9BB26385531E238503694B7028
:10304800238D628D616A013B013A01319BB292B2D4
:10305800616223856285002BAFD10023202284F88A
:103068003D2084F83C3084F83E3045E72A46314616
:103078002046FFF7E3FB002885D12268636A1269BE
:103088001A70628D238D616A013A92B2013B6285A2
:103098000131226861629BB2238550694007DAD505
:1030A800032B05D1136823F4806313602268616AD7
:1030B80013690B70628D238D013A92B26285626A40
:1030C800013B9BB2013223856262002B7FF475AF0E
:1030D800C3E7FFF717FB00287FF455AF2268136892
:1030E80043F40073136023681A69636A1A70638D66
:1030F800626A013B9BB26385238D013B2385511C8A
:10310800236861621B695370D4E72A46314620461A
:10311800FFF794FB00287FF436AF23681A69636AC7
:103128001A70C7E7136823F4806313602268136872
:1031380043F400631360236804905A6904929B69FE
:103148000493049B238D35E7136823F4806313608D
:10315800236803905A6903929A690392039A1A683A
:1031680042F400721A60238D24E700BF02001000A9
:103178000000FFFF0400010090F83D00704700BF09
:1031880030B4D1E907344A6A0D682343134302680F
:10319800A5B922F4FF4222F07F021343D1E901428C
:1031A80023431343D1E9034223431343D1E905429F
:1031B80023431343036030BC0020704722F4F842D5
:1031C8001343036043684C688A6823F4FF4323F081
:1031D8007F0323431343D1E9034223431343D1E934
:1031E800054223431343436030BC0020704700BFAF
:1031F80030B4CB684C69013B04F1FF3C1B034FEA38
:103208000C5CE2B90A6884688D68013A43EA0C03E9
:1032180013434A6804F070442343013A0C6943EAB3
:1032280002138A69691E43EA0123611E43EA0143C6
:10323800013A43EA0263836030BC00207047826829
:1032480022F4700243EA0C0322F470421A438260AB
:10325800D1E90024C3688D68013C03F0704343EA58
:103268000413013A0C6913438A69691E43EA01236E
:10327800611E43EA0143013A43EA0263C36030BC7A
:103288000020704770B50B6815464A68044613431A
:103298000069CA68800D43EA42238A6880050343AF
:1032A800013A43EA42132361FCF7CEFF064601E0E8
:1032B8006B1C05D1A36913F02003F9D1184670BD22
:1032C80025B1FCF7C1FF801BA842F3D9032070BDCC
:1032D800436923F47F53024623F03E0343EA410344
:1032E80000205361704700BFF0B52C4C2C4E2D4B7D
:1032F800236089B000250095336B2B4F2B4A43F090
:1033080080033363336B626003F0800300934FF4F0
:103318008043009A23610022102012210223CDE964
:103328000423CDE90201042302A938460693A560C7
:10333800E5606561A561E5612562FDF725F802A9EB
:10334800384620230293FDF71FF80195336C43F4A8
:1033580080033364336C03F480030193019B336A65
:1033680043F480033362336A23F4800333622A46CA
:1033780005212120FCF792FF2120FCF7CBFF2A46EC
:1033880005212220FCF78AFF2220FCF7C3FF2046F4
:1033980009B0BDE8F040FFF727BC00BFA803002034
:1033A8000038024000580040001C0240A08601007E
:1033B80030B5404B40494148186089B0002200921E
:1033C800086B3F4C40F002000863096B3D485C60A5
:1033D80001F0020100914FF480414FF480741125EF
:1033E8009A60DA6019615A619A61DA611A62069222
:1033F8000223002202A9CDE90245CDE90423009C5D
:1034080005460A24FCF7C0FF01224FF480712846C4
:10341800FDF7F4F80120FCF71DFF00224FF480713E
:103428002846FDF7EBF80120FCF714FF621E12F0A6
:10343800FF04E9D14FF480721223CDE90223002260
:103448000223CDE9042302A904231E480693FCF7AE
:103458009BFF02A94FF400731A480293FCF794FFEC
:10346800154B01941A6C42F400121A64186C00F49B
:10347800001001900198186A40F400101862186A48
:1034880020F400101862224605211F20FCF706FFD1
:103498001F20FCF73FFF224605212020FCF7FEFEF7
:1034A8002020FCF737FF034809B0BDE83040FFF79C
:1034B8009BBB00BF000400200038024000540040BD
:1034C800801A06000004024003282DD870B5294E42
:1034D80056F820108AB0012303220228CDE90513EB
:1034E800CDE90732044638D0904229D098424FF0AF
:1034F8000002214B19D001921A6B42F040021A6364
:103508001B6B03F040030193019B1C4D05A955F863
:103518002400FCF739FF36F8241055F8240001225E
:10352800FDF76CF80AB070BD704702921A6B42F052
:1035380008021A631B6B03F008030293029BE4E77B
:103548000D4B002204921A6B42F480621A631B6BC3
:1035580003F480630493049BD7E7074B002203928C
:103568001A6B42F008021A631B6B03F008030393FB
:10357800039BCAE71C000020003802400C00002012
:10358800032800D97047044A044B32F8201053F836
:1035980020000022FDF732B81C0000200C0000209B
:1035A800032800D97047044A044B32F8201053F816
:1035B80020000122FDF722B81C0000200C0000208A
:1035C800032800D97047044A044B32F8201053F8F6
:1035D8002000FDF717B800BF1C0000200C000020D9
:1035E80030B589B01C4B002501951C6B44F00104D3
:1035F8001C631B6B03F001030193019BE1B10129DB
:1036080001D009B030BD154B012253F820004FF40A
:103618008813CDE9022302A902230022CDE904235D
:10362800FCF7B2FE2A460F210620FCF737FE0620DB
:10363800FCF770FE09B030BD084901220023CDE92E
:10364800022351F820000022022302A9CDE9042315
:10365800FCF79AFE09B030BD00380240080000208F
:1036680008B5034B012153F82000FCF7C1FF08BD42
:103678000800002008B50448FFF77EFD00B108BD2A
:10368800BDE80840FFF730BEA8030020704700BF20
:1036980000B587B0864694464FF47A700DF117024C
:1036A8000123CDE9002302900A460B488DF817C084
:1036B8007146FFF775FB10B907B05DF804FB0648C3
:1036C800FFF754FB0448FFF757FD0028F4D1FFF734
:1036D8000BFE07B05DF804FBA803002010B586B008
:1036E80084460A4600200DF1170101234FF47A742D
:1036F800CDE900138DF8170002940B486146FFF7D7
:10370800E9FB18B99DF8170006B010BD0648FFF789
:103718002DFB0548FFF730FD0028F3D1FFF7E4FD46
:103728009DF8170006B010BDA803002008B504488E
:10373800FFF722FD00B108BDBDE80840FFF738BE1D
:103748000004002000B587B08646944664200DF139
:1037580017020123CDE9002302900A460B488DF891
:1037680017C07146FFF71CFB10B907B05DF804FBE2
:103778000648FFF7FBFA0548FFF7FEFC0028F4D1DE
:10378800FFF716FE07B05DF804FB00BF0004002039
:1037980010B586B084460A4600200DF117010123B2
:1037A8004FF47A74CDE900138DF8170002940B4892
:1037B8006146FFF78FFB18B99DF8170006B010BDDA
:1037C8000648FFF7D3FA0548FFF7D6FC0028F3D1DF
:1037D800FFF7EEFD9DF8170006B010BD00040020AD
:1037E80010B584B004464FF47A70CDE900230290F6
:1037F8000A460B4821460123FFF76CFB044610B923
:10380800204604B010BD0648FFF7B0FA0448FFF799
:10381800B3FC0028F4D1FFF7CBFD204604B010BD5F
:1038280000040020FCF716BDFCF714BD2DE9F04399
:10383800224C234D83B0012600274FF01009214662
:1038480080464FF6FF722846C4E902670197266052
:10385800C4F80490FEF740F83046FCF7FBFC21461C
:1038680002234FF6FF7228462360C4E90196E760F9
:10387800FEF732F80323214623604FF6FF72082330
:103888002846A360C4F80490E760FEF725F84FF4D3
:103898000C73019304221023C4E900232146019BE1
:1038A800A6604FF6FF722846E360FEF715F841461A
:1038B800284603B0BDE8F043FEF72CB8B804002052
:1038C800E8040020002800F0C28070B590B0604B7A
:1038D800604C002501959A6B42F001029A639A6B3D
:1038E80002F001020192019A02951A6B42F48002D9
:1038F8001A631A6B02F480020292029A03951A6BF9
:1039080042F004021A631A6B02F004020392039A4B
:1039180004951A6B42F008021A631A6B02F0080247
:103928000492049A05951A6B42F010021A631A6BF6
:1039380002F010020592059A06951A6B42F02002D1
:103948001A631A6B02F020020692069A07951A6B00
:1039580042F040021A631A6B02F040020792079A7B
:1039680008951A6B42F080021A631A6B02F0800203
:103978000892089A09951A6B42F480721A631B6BB5
:103988000C2103F480730122064609930E91022349
:103998000AA93148CDE90A23CDE90C23099BFCF794
:1039A800F3FC0AA94CF203732C480A93FCF7ECFCCD
:1039B8000AA94FF683732A480A93FCF7E5FC0AA97B
:1039C8004FF63F0327480A93FCF7DEFC0AA948F2A2
:1039D800331325480A93FCF7D7FC0AA94FF60C7352
:1039E80022480A93FCF7D0FC0AA940F2FF6320485A
:1039F8000A93FCF7C9FC8022A2604FF40072E260CF
:103A08004FF4806222614FF4805262614FF4804229
:103A1800A2614FF40032174BE562256322623463DA
:103A2800032220462360A2626560E5616562A663A1
:103A3800FDF758FB2046FDF7BDFA2A460521382038
:103A4800FCF72CFC3820FCF765FC10B070BD704703
:103A5800003802405804002000080240000C0240D0
:103A6800001002400014024000180240001C0240EE
:103A7800002002401064024070B51A4C1A4D1B48D1
:103A8800206007220423C5E90123EA60E3602022BD
:103A98004023C4E9042302214FF400632960A9618B
:103AA800236200214FF4C0724FF48053C4E9062109
:103AB8006362022202232046C5E90423C4E90111F6
:103AC800A162FFF7FFFE29462046FDF7E3FE084EF8
:103AD800031E18BF012340F269503370FFF7A6FE9A
:103AE800307870BDE8040020C8040020400100A020
:103AF8002C00002030B587B00025164B00951A6BB6
:103B08001549164842F080021A631B6B0A7803F0C5
:103B18008003AA42009314BF112201228024009B33
:103B280001A90323CDE90353CDE90142FCF72CFC9D
:103B38002A4621460948FCF761FD1420FCF78AFB58
:103B4800012221460548FCF759FD1420FCF782FBA9
:103B580007B030BD00380240082A0020001C02408F
:103B680030B5184A184D12682D688FB000230A9195
:103B7800FF2106914FF4C061CDE90132CDE903354B
:103B88000B92059302460793ADF834308DF8363022
:103B98000891072301A904460C4809930C95FEF7E0
:103BA80041F80B4A0B4904EB440402EB84034FF041
:103BB8007F454FF0FF30C3E9010142F824500FB0B0
:103BC80030BD00BF34000020300000204429002010
:103BD8005805002040000020014B1860704700BFC6
:103BE80070050020084A1368C00184330129195858
:103BF8000CBF41F0010121F0010119501268536A0C
:103C080043F001035362704744290020034B044AE0
:103C18001B6803EB430342F823007047700500203C
:103C280058050020044B054A1B6803EB430302EBCD
:103C380083025060704700BF7005002058050020BF
:103C4800044B054A1B6803EB430302EB83029060B5
:103C5800704700BF70050020580500202DE9F0438B
:103C68001A4A1B4B16681B4C1B49342202FB0633AD
:103C78001A4ADF6DD1F80080D2F800900023A360C3
:103C8800E360174B236083B005464FF4403320466A
:103C98006360FDF739FC10B103B0BDE8F08331462D
:103CA8002046FDF7A3FD0028F6D1CDF80090434645
:103CB8003A4629462046FDF757FC0028ECD10A2150
:103CC800204603B0BDE8F043FDF76CBC700500204A
:103CD800442900200C2A0020340000203000002055
:103CE80000B002402DE9F04F364B374F1C68A2F167
:103CF800200304EB440207EB820787B0BA680491FB
:103D0800958811688046D0880390EA1D4FEAE20B37
:103D1800C5EBCB0200FB03F3D2B20BFB03F3059216
:103D2800002841D0294ADFF8A8A00B44342101FB20
:103D3800042900205C46049A93F800C01618012C48
:103D4800B6B207D0022C32D1B3F800C09CFA9CFC62
:103D58001FFA8CFC059A0293CDE9004005F1FF3E5D
:103D680096444FF0010B0022DAF80040D9F85C00C5
:103D780008EB0203AEEB02010BFA01F19BB211EA68
:103D88000C0F04FB063302F1010214BF396879688D
:103D980040F82310AA42E7D3DDE90040029B039ACA
:103DA800013082422344C6D107B0BDE8F08F002D10
:103DB800F5D05A784FEA0C4C4CEA022C9A784CEA27
:103DC800020CC7E770050020580500204429002090
:103DD800340000202DE9F0431746154617F8012B4B
:103DE80083B004460E469846002A4CD038460192C5
:103DF80021F07AF9019A00F1010E244B24491B683D
:103E0800DFF8909003EB430301EB8303B8F1010F54
:103E18009F68D9F80000B7F804C0B0FBFCF12AD0BD
:103E2800B8F1020F05D1A1EB0E0313FB0CF31B1B1A
:103E38009CB223B2002B80B2D8BF0124844517D886
:103E4800B2B1C5F1010820463146FFF74BFFB988EA
:103E5800D9F8003008EB050292B201FB12339BB28D
:103E68000C448B4215F8012FA4B201D3002AEAD1E1
:103E780003B0BDE8F083A1EB0E030CFB03F304EBE6
:103E880053039CB2D5E79646B7E700BF70050020FC
:103E980058050020340000202DE9F04F204C1F4623
:103EA800204BD4F800A0D3F800901F4B1F4C884635
:103EB800342101FB0A330AEB4A01D3F85CB01C4BEE
:103EC80085B053F8213003931A4B23604FF44033E5
:103ED800636000230646A3602046A9EB020315464B
:103EE800E360FDF711FB10B105B0BDE8F08F514656
:103EF8002046FDF77BFC0028F6D109FB08620399F0
:103F080000972B460BEB82022046FDF72DFB00287D
:103F1800EAD10A21204605B0BDE8F04FFDF742BBC3
:103F28007005002034000020442900200C2A0020BD
:103F38005805002000B0024000B5064A064811683E
:103F480083B00023009315222923FEF79FFA03B0BC
:103F58005DF804FB74050020EC29002000B5012859
:103F680083B00BD90A5C0346CDE900210948392200
:103F78000021FEF7B7FA03B05DF804FB4A780B7826
:103F88000448009200211522FEF780FA03B05DF87C
:103F980004FB00BFEC29002000B585B013460622BB
:103FA800CDE90101009205480A460021FEF706FB0B
:103FB800003818BF012005B05DF804FBEC2900208B
:103FC80010B584B0294B002401945A6C42F08062E9
:103FD8005A64586C00F0806001900198586A40F06B
:103FE80080605862586A20F0806058620294186BAA
:103FF80040F400001863186B00F400000290029867
:10400800186940F400001861186920F4000018616C
:104018000394586C40F000605864586C00F00060DD
:1040280003900398586A40F000605862586A20F07C
:1040380000605862224603215820FCF72FF95820C7
:10404800FCF768F9224603215A20FCF727F95A2081
:10405800FCF760F922465C200321FCF71FF95C207D
:1040680004B0BDE81040FCF755B900BF0038024065
:104078002DE9F047734C8AB00746FFF73BFDFFF781
:104088009FFF714B23602046FDF74AFF04267D22DF
:104098000223CDE901230DEB06010123002520466B
:1040A800E3600395A660FDF727FE2046FEF796F924
:1040B80031462046FEF734F900F0BEFD802805D0D1
:1040C80000F038FC402814BF02250125DFF89C9138
:1040D800DFF89CA189F80050FFF70CFD59485B4DAB
:1040E800FEF7A8F9002F40F2E54199F8000040F2E8
:1040F800BE7313BF4FF4F0724FF448720B464FF47F
:10410800487108BF4FF4F0712A60CAF800100028FF
:1041180040F08680962006464FF0780C4C4CC4E957
:104128000C3C052363600223E36040F6FF73A36140
:104138004FF004084D23C4E90A83226410234FF486
:1041480000424FF4005CC4E911234FF48053C4E9E2
:1041580014C34FF4006E4FF48063C4E916E3C4E956
:104168000E604FF48073002621614FF400782146D9
:1041780034482660C4E91883C4E907664FF0230869
:1041880066626661E664FDF797FF04A90A232D4875
:104198000993CDE90488CDE906880896FEF7D8F892
:1041A800DAF800302A682B4D2B48C5F81C80C5E981
:1041B800183203EB08024533EB62082303604FF41F
:1041C800C07303614FF0010807236A62C361866206
:1041D800C5F81480FCF704FB204B2B6021462846C9
:1041E800AE8685F836602E61FDF754FD2846FDF74A
:1041F8004BFC1448FEF7F2F8FFF73EFC184B194A3F
:104208001B6899F8000003EB430302EB8303164A8B
:104218009A6090B1012808D040460AB0BDE8F087FE
:1042280010200F264FF0010C78E73946304600F091
:1042380031F900200AB0BDE8F087394600F08AFB62
:10424800F7E700BFEC290020006C01403000002097
:1042580074050020442900201C0500200068014046
:10426800700500205805002040000020082A002082
:1042780034000020F8B5164D164E2B6804463078E9
:104288000F4698476B6854209847C0B211281AD037
:104298006B6870209847C3B2112B4FF070003070D4
:1042A80001D0D82B12D10C4BBC422CBF0C240124BA
:1042B8001C700A4CAB682560984723683078DB6827
:1042C80098470020F8BD54203070ECE70320F8BD73
:1042D80048000020F0050020F1050020F40500202A
:1042E80010B51A4982B0002204460878019201A943
:1042F80000F038FD019B1C2B15D81C2B10D8DFE8CB
:1043080003F0170F0F0F0F0F0F0F0F0F0F0F0F0FD8
:104318000F0F230F0F0F1F0F0F0F210F0F0F1D0070
:10432800012002B010BD482B06D0492BF8D1062336
:104338000020236102B010BD0523F9E70423F7E745
:104348000223F5E70323F3E70123F1E7F005002053
:104358002DE9F04FDFF830A1494ADAF800308BB088
:1043680000248346CDE907441B69107809949847CF
:104378008BF80000002872D0DFF81091DFF8108168
:10438800CDF80CB005AE06AD0BF10907DAF8003030
:104398003B4A5B69107831462A469847394B197869
:1043A8000B075FD433882A88880704D5C3F5477379
:1043B80003339BB23380490704D5C2F5EF7201324B
:1043C80092B22A80D9F80010D8F800E08B421FFA80
:1043D80081FC1FFA8EF08CBFA3EB0C01ACEB030140
:1043E80072458CBFA2EB000EA0EB020E89B21FFA39
:1043F8008EFE7144052905DDC9F80030C8F8002093
:1044080010469C462BF802CF09ABABF8040000938A
:104418001B4B07AA1878214608AB00F0B5FC079B90
:1044280007F8013FDDE908233A71032B05D8DFE8D7
:1044380003F00224211E0123BB70039B1B78013467
:10444800A34206F1020605F1020509F1040908F183
:1044580004089BD8DDF80CB05846FFF741FF0BB0B5
:10446800BDE8F08F32882B8833802A809CE70023B0
:10447800BB70E2E70323BB70DFE70223BB70DCE716
:10448800F0050020F1050020F4050020E8050020D3
:10449800E005002038B504460D460020CA49FFF75C
:1044A8005DFDCA490320FFF759FDC9490020FFF700
:1044B80055FDC8490220FFF751FDC5490020FFF707
:1044C8004DFDC5490020FFF749FD0A20FFF7AAF96D
:1044D800C2490020FFF742FDC1490020FFF73EFD19
:1044E8000A20FFF79FF9BF490020FFF737FDBE49B3
:1044F8000020FFF733FDBD490020FFF72FFDBC4921
:104508000020FFF72BFDBB490020FFF727FDBA4924
:104518000020FFF723FDAC490020FFF71FFDB74936
:104528000020FFF71BFDB6490020FFF717FDB5492E
:104538000020FFF713FDB4490020FFF70FFDB34932
:104548000020FFF70BFDB2490020FFF707FDB14936
:104558000020FFF703FDB0490020FFF7FFFCA44946
:104568000020FFF7FBFC98490020FFF7F7FCAB4958
:104578000220FFF7F3FCAA490020FFF7EFFCA94946
:104588000020FFF7EBFCA8490020FFF7E7FCA7494C
:104598000020FFF7E3FCA6490020FFF7DFFCA54950
:1045A8000020FFF7DBFC96490020FFF7D7FCA24963
:1045B8000020FFF7D3FC94490020FFF7CFFC9F4968
:1045C8000020FFF7CBFC9E490020FFF7C7FC9D4960
:1045D8000220FFF7C3FC7E490020FFF7BFFC9A4981
:1045E8000620FFF7BBFC99490020FFF7B7FC984964
:1045F8000E20FFF7B3FC97490020FFF7AFFC964960
:104608000E20FFF7ABFC95490020FFF7A7FC944963
:104618000A20FFF7A3FC93490020FFF79FFC92496B
:104628000020FFF79BFC6A490020FFF797FC8F49A1
:104638000A20FFF793FC8E490020FFF78FFC8D4975
:104648000F20FFF78BFC81490020FFF787FC8A4980
:104658000F20FFF783FC7F490020FFF77FFC874985
:104668000A20FFF77BFC7D490020FFF777FC84498F
:104678000F20FFF773FC7B490020FFF76FFC81498F
:104688000F20FFF76BFC80490020FFF767FC7F498C
:104698000A20FFF763FC7E490020FFF75FFC7D4995
:1046A8000A20FFF75BFC4A490020FFF757FC7A49CC
:1046B8000A20FFF753FC6E490020FFF74FFC7749AB
:1046C8000F20FFF74BFC61490020FFF747FC7449B6
:1046D8000F20FFF743FC5F490020FFF73FFC7149BB
:1046E8000A20FFF73BFC5D490020FFF737FC6E49C5
:1046F8000F20FFF733FC5B490020FFF72FFC6B49C5
:104708000F20FFF72BFC3E490020FFF727FC6849E4
:104718000020FFF723FC67490020FFF71FFC6649CC
:104728000020FFF71BFC65490020FFF717FC6449D0
:104738000020FFF713FC24490020FFF70FFC614914
:104748000320FFF70BFC20490020FFF707FC1E4958
:104758000020FFF703FC5C491020FFF7FFFB1A4914
:104768000020FFF7FBFB59491020FFF7F7FB00205B
:104778005749FFF7F3FB7820FFF754F8002C00F0B7
:10478800BB80022C03D153490020FFF7E7FB012D22
:1047980000F0B98050490020FFF7E0FB4F490020A6
:1047A800FFF7DCFB4E490020FFF7D8FB4D490020FE
:1047B800FFF7D4FB4C490020FFF7D0FB024900204B
:1047C800FFF7CCFB92E000BFA87D0208F07E02084C
:1047D800A47D0208EC7E0208A07D02089C7D0208E8
:1047E800987D0208947D0208907D02088C7D02085D
:1047F800887D0208847D0208807D02087C7D02088D
:10480800787D0208747D0208707D02086C7D0208BC
:10481800687D0208647D0208607D0208C07E020887
:104828005C7D0208587D0208547D0208507D02080C
:104838004C7D0208487D0208447D0208407D02083C
:104848003C7D0208BC7E0208B47E0208387D02085E
:10485800A47E0208347D0208947E0208307D020896
:10486800887E02082C7D0208F47C02087C7E0208FF
:10487800287D02086C7E02085C7E0208507E0208D1
:10488800407E0208307E0208247D0208247E020849
:10489800207D0208187E02080C7E0208FC7D0208B2
:1048A800EC7D0208E07D0208D07D0208C07D020888
:1048B800F07C0208EC7C0208E87C0208E47C020830
:1048C800E07C0208BC7D0208D87E0208C47E02088B
:1048D8001C7D0208187D02080C7D0208087D02086C
:1048E800047D0208007D0208FC7C02080C490020B7
:1048F800FFF734FB002038BD0A492046FFF72EFB9E
:10490800012D7FF447AF08490020FFF727FB07492F
:104918000420FFF723FB06490420FFF71FFB39E7B4
:10492800F87C0208147D0208107D0208B47D020894
:10493800AC7D020800B583B0002301220DF1070108
:10494800DA208DF80730FFF727FB9DF8070003B042
:104958005DF804FB30B50446B1B078200D46FEF78B
:1049680063FFA64ADFF8C4C2DFF8C4E2A44B92E8AA
:1049780003002C90ADF8B410A248A349CDE9140166
:10498800A249A348CDE916C1A249DFF8A8C2CDE9DA
:1049980018E140F2BF11ADF804109F491A46CDE95D
:1049A8001A019E4952F8040BADF84400CDE91CC128
:1049B8009B491E91000C01F180711F918DF84600F2
:1049C80092E80300DA68ADF84820120C8DF84A2006
:1049D80040F2B632ADF8082045F2B502ADF80C2029
:1049E8001A69ADF84C20120C8DF84E208D4A2E9085
:1049F800ADF8BC1092E803008DF88C108A4922901B
:104A08004FF03C40CDE920014FF4DD7103F1140271
:104A1800ADF810103621ADF8141092E8030003F138
:104A28001C0224908DF8941092E8030003F12402EC
:104A38008DF89C1046F236012690ADF8181092E8D1
:104A480003002C3328908DF8A41093E80300352335
:104A5800ADF81C301123ADF820302923ADF82430EF
:104A680047F65173ADF8283042F65343ADF82C3071
:104A780040F25523ADF830304FF65E73ADF8343060
:104A88002C232A908DF8AC10ADF8383045F23A5303
:104A980005202CA9ADF83C3047F23A73ADF8403008
:104AA800FFF75CFA14A90320FFF758FA15A90320A9
:104AB800FFF754FA16A90320FFF750FA17A90320A5
:104AC800FFF74CFA18A90320FFF748FA19A90320A1
:104AD800FFF744FA01A90120FFF740FA1AA90320B9
:104AE800FFF73CFA1BA90320FFF738FA1CA903209B
:104AF800FFF734FA1DA90320FFF730FA1EA9032097
:104B0800FFF72CFA1FA90320FFF728FA11A90220A2
:104B1800FFF724FA2EA90520FFF720FA12A9022090
:104B2800FFF71CFA02A90120FFF718FA03A90120D0
:104B3800FFF714FA13A90220FFF710FA22A904209C
:104B4800FFF70CFA20A90320FFF708FA21A9032090
:104B5800FFF704FA04A90120FFF700FA07A90020CB
:104B6800FFF7FCF9002010A9FFF7F8F9C820FEF7B5
:104B78005BFE002D34D105A90120FFF7EFF924A928
:104B88000420FFF7EBF926A90420FFF7E7F908A9A5
:104B98000020FFF7E3F97820FEF746FE022C0CBF51
:104BA8000FA910A90120FFF7D9F90AA90120FFF7D9
:104BB800D5F90BA90120FFF7D1F90CA90120FFF7BE
:104BC800CDF90DA90120FFF7C9F909A90020FFF7C0
:104BD800C5F900200EA9FFF7C1F9002031B030BD9A
:104BE80006A90120FFF7BAF928A90420FFF7B6F9AA
:104BF8002AA90420FFF7B2F9C9E700BFF47E02082A
:104C0800047F0208030303B0464646B6363636B775
:104C1800090909B3262626B8363636B9262626BA0D
:104C2800008000BCFC7E0208030000CC030303B133
:104C3800000002B2080808B500B583B000230122BD
:104C48000DF10701DB208DF80730FFF7A5F99DF876
:104C5800070003B05DF804FB704700BF00207047F1
:104C680010B50446FEF762FDA821E0B2FEF790FDFC
:104C780010BD00BF10B582B000240221C0B28DF86B
:104C88000740FEF785FD8DF807009DF8073003F013
:104C98000F038DF807309DF80730022B88BF8DF879
:104CA80007409DF80710044B9DF807005970002233
:104CB8009A7002B010BD00BFF805002070B5164C00
:104CC8001546A37862789A4282B020D90E4603B37B
:104CD800012B0CBF0921002104230DEB0302C0B2F4
:104CE800FEF77EFD9DF804309DF805209DF807101D
:104CF8001B0203F470631A439DF8063032801B02CE
:104D0800A27803F470631943531C2980A37002B07E
:104D180070BD0321E0E700BFF80500200122A421AF
:104D2800C0B2FEF70FBD00BF0022A421C0B2FEF73B
:104D380009BD00BF064A1378984204D051788842CA
:104D480001D013B101B170470123D054FEF7EEBC76
:104D5800FC050020704700BF0022A421C0B2FEF766
:104D6800F1BC00BF10B582B00C4600230121C0B2CF
:104D78008DF80730FEF70CFD8DF807009DF8073019
:104D8800236002B010BD00BF30B5124C94F801C0CA
:104D98008C4583B019D915461C46C1B101290CBFF1
:104DA8000D210021032301AAC0B2FEF719FD9DF8C9
:104DB80005309DF806209DF8041029601B1103F0AA
:104DC80004032360069B92091A6003B030BD0721D3
:104DD800E8E700BFF805002008B51BF085FA0F4A80
:104DE80000234FF0040C40F207104FF0010EEF2B98
:104DF8004FF0030108DDF22B0ADC0133EF2B02F838
:104E0800011F4FF00301F6DC02F801EF0133EEE772
:104E18000133834202F801CFE9D108BD7B2A002083
:104E280038B54FF4804200213A483B4C3B4D1EF0C8
:104E3800DBFB4FF48072002139481EF0D5FB39495D
:104E480039483A4A00230B70394923700B703949A5
:104E580003700B803849394C0B70394939480B704D
:104E6800394923700B70394903700B703849394C34
:104E780039480B70394923700370394C39480B7025
:104E8800394923700370394C39480B8039492370EC
:104E98000370394C39480B80394923700380394CE9
:104EA8002B70012008803849236008230B7037488D
:104EB8003749384C0B8002F58045374B056015485B
:104EC800226003F14001024643F8042F8B4202F5A9
:104ED8008062F9D1314A324B1278324913F82240B4
:104EE80003EB820300EB84245A7893F802C00C6227
:104EF80000EB82224A622C4ADC785279B2FA82F3B9
:104F080000EB8C2200EB8420C1E90A20274C5B09C6
:104F1800237038BD904B0020EC8B002059AD002049
:104F280040AC00203EAC0020712A002064AD002077
:104F3800108C00209A8B0020882B002038AC002091
:104F480039AC0020ED8B0020908B0020682A0020CF
:104F5800892B0020A52D0120A48B0020702A002079
:104F68001C8C0020088C0020A62D0120988B002086
:104F7800EE8B00203CAC00205BAD0020F28B0020C3
:104F8800028C0020048C0020EF8B0020148C002061
:104F9800F08B0020742A0020602D0120A42D012010
:104FA80070000020642D012040AD00209C8B002063
:104FB80038B5354C354DA2794FEA121C04F10B0176
:104FC80085F800C0042311F8010F013340B9082BFC
:104FD800F9D1E37923F00F034CEA030C85F800C0FC
:104FE8002B482C4B2C4902F00104047002F00200FB
:104FF80018702A4802F0080302F004040C700370C9
:105008004FF40052002126481EF0EEFA254A2649A0
:10501800264B022000241080FF20087040222146E1
:1050280023481C801EF0E0FA1822214621481EF071
:10503800DBFA214A214B224914601C60214A224B89
:105048000C6014601C60FFF7EBFE1AF0BFFC1F4AEF
:105058001368591C11D02878214604E0013152F810
:1050680031305C1C09D09842F8D102EBC102536878
:1050780098471BF045FA002038BD297814481EF0DF
:10508800C1FA4FF0FF3038BD40AD0020A58B00209D
:10509800A42D0120008C00203AAC002058AD00203F
:1050A800348C0020880000205AAD002050AD00202C
:1050B800AC8B00204C2A00208C4B0020188C002040
:1050C800FC8B00202C8C0020782A0020547F0208BA
:1050D800387F020810B504461EF05AFA20461EF022
:1050E800FBF9002803DBFFF763FFC01710BD4FF083
:1050F800FF3010BD10B40D490D4B11F8204001EBE5
:10510800800203EB84245078917892F803C0094A0E
:1051180003EB802003EB812103EB8C23C2E90A1304
:10512800146250625DF8044B704700BF70000020A5
:10513800904B0020642D01202DE9F04F114BCBB08E
:105148001B6801209847104A104B1468104A1B88A6
:10515800117811F0080104EB43241BD104F5007009
:1051680023461A46023383421180FAD1054B0020A8
:105178001B689847064B1B78DD0600F1B5814BB0DC
:10518800BDE8F08FA88B0020642A00203CAC0020EA
:105198003EAC0020C64ADFF844B31678C54A1078FA
:1051A80000EBD30003F007031E44C34B072EC8BF10
:1051B80001301B78C8BF06F007061D28C5BF1E387A
:1051C80083F00203039303938310DB0003F57075E8
:1051D800BA4B039A1978BA4B069553F822200491D2
:1051E80055198B104700EB5C01950D4601EB4011FA
:1051F800400107F00407059005F00200384443FA1F
:1052080000FC535CDBF80050F60006EB83131D44EA
:10521800AC4B93F800804FEA8C0CB8F1070F0CF0F8
:105228000C0C02EB010914D8A74805EB080205F19C
:10523800080E234612F8011B6144964530F811A068
:10524800A3F800A003F10203F4D1C8F1080804EBA5
:105258004804DFF88C82049BDFF888A2A5EB0800DD
:10526800C0F38F005D1CDAF8003098471F2D09F154
:1052780001095CDC2B46944807944D4602909946F8
:10528800019B4FEAA90209F002009A5C029B38438D
:105298000241D20015F8010B02F018021A4406EB7D
:1052A8008010DBF8003013F800E0103432F81EC02C
:1052B80024F810CC184409F1010990F801C032F81B
:1052C8001CC024F80ECC90F802C032F81CC024F898
:1052D8000CCC90F803C032F81CC024F80ACC90F823
:1052E80004C032F81CC024F808CC90F805C032F885
:1052F8001CC024F806CC90F806C032F81CC024F86C
:1053080004CC90F807C0A0EB080032F81C2024F861
:10531800022CC0F38F00DAF800209047B9F1200F73
:10532800AED1049B079CC3F11F0304EB0314039B3A
:10533800634A83F0010352F82330059A1A449146D0
:10534800069A1A445D4B1B789446002B62D00025C0
:105358004B465D480192A94602901D46019B15F8EF
:1053680001CB4FEAA90209F002009A5C029B38437C
:10537800024106EB8C1CDBF80000D20002F0180298
:1053880010F80CE01A441034604432F81EC024F8B7
:1053980010CC90F801C032F81CC024F80ECC90F85C
:1053A80002C032F81CC024F80CCC90F803C032F8C4
:1053B8001CC024F80ACC90F804C032F81CC024F8A9
:1053C80008CC90F805C032F81CC024F806CC90F838
:1053D80006C032F81CC024F804CC90F807C0A0EB33
:1053E800080032F81C2024F8022CC0F38F00DAF8E9
:1053F80000209047314B1A7809F101094A45ADDC84
:10540800DDF804C02B464D460CEBA50C05F0020553
:1054180099462F4399F800309CF8005006EB831307
:10542800DBF800601E44274B3D411F78AD0005F0B6
:105438000C0567B1244837443246214612F8013B2F
:105448002B44974230F8133021F8023BF6D1A6EBF3
:105458000800DAF80030C0F38F0098471B4B197822
:1054680011F002010CD11A4B1A881A4B1B6803EB76
:10547800422303F110001A46023383421180FAD105
:10548800154B1B78002B3FF471AE114B1A88A2F113
:105498000803E02B7FF66AAE0E4B1B6803EB422332
:1054A80003F500700021198002338342FBD15DE6C9
:1054B800A48B00201C8C0020EF8B0020EE8B00209A
:1054C800642D0120988B0020AC8B00203EAC00207E
:1054D8003CAC0020642A0020ED8B0020742A0020B8
:1054E80064AD00206C2A0020914ADFF86CA2137882
:1054F80023F020031370002140F2071208A81EF0C1
:1055080073F88C4B8C4A93F800E08C4B1F888C4BBB
:10551800D3F800908B4B0EF0200E1D88A2F58076F4
:105528004FF00008714659E01EF0010F0CF47E5C44
:1055380000F0B7800CF5804C6344534480F02000A1
:105548004FEA800C400692F807E00CF08C0C60D50E
:10555800D87928B10DF1200B40EA0C000BF80E00A9
:10556800987930B10EF1200BEB4440EA0C008BF82F
:105578000100587930B10EF1200BEB4440EA0C00E1
:105588008BF80200187930B10EF1200BEB4440EA99
:105598000C008BF80300D87830B10EF1200BEB44E7
:1055A80040EA0C008BF80400987830B10EF1200B1B
:1055B800EB4440EA0C008BF80500587830B10EF146
:1055C800200BEB4440EA0C008BF806001878002802
:1055D80060D108F10108043A964266D01379013384
:1055E8009D42F8DBF8188542F5DA92F906C092F880
:1055F80005E09079EB1ABCF1000FBCBFFB1A03F170
:10560800FF33DB004FEA8E1C00298DD163444B44E5
:1056180094E7187828B10DF1200B40EA0C000BF83C
:105628000E00587830B10EF1200BEB4440EA0C0024
:105638008BF80100987830B10EF1200BEB4440EA6A
:105648000C008BF80200D87830B10EF1200BEB4437
:1056580040EA0C008BF80300187930B10EF1200BEA
:10566800EB4440EA0C008BF80400587930B10EF195
:10567800200BEB4440EA0C008BF80500987930B118
:105688000EF1200BEB4440EA0C008BF80600D879A9
:1056980000289ED00EF120036B4440EA0C00D8711C
:1056A80097E79C440CEB0A0348E7274B274D1B78E8
:1056B800C3F58073A4EB43040DF21F100DF11F0313
:1056C80006E0228812040ED4984204F1020411D094
:1056D80013F8012F002AF7D002F00F0112F0800F03
:1056E80001F11001EDD035F811202280984204F123
:1056F8000204EDD1164B1A7812F004020CD1114BAA
:105708001988144B1B6803EB412303F11000194659
:10571800023383420A80FAD1B8F1070F7FF72FAD21
:10572800034A137843F0200313704BB0BDE8F08FA1
:10573800712A002038AC002038AD0020F08B002002
:10574800148C00203CAC0020988B0020AC8B0020EF
:105758003EAC0020642A002064AD002070B4294AC1
:1057680092F90230002B83B043DB00210223009121
:10577800019325495378087880064FEA831132D57A
:1057880013F0010F009B214801F47E5118BF03F567
:1057980080430B44034492F800C00CF1FF32D2B2AC
:1057A800EE2A1AD81A4A1588A5B10CF1010C194E1F
:1057B80000225FFA8CFC1968586801430CEB02045C
:1057C800019916BF3460013240F20712AA4203EB76
:1057D8008103F0DB03B070BC70470E4BF1221A60F6
:1057E80003B070BC70470C4B00981B6801440B4415
:1057F800D1E7074B1B88013B6FF00101DB000093E9
:105808000191B6E740AC002038AC002064AD002020
:10581800F08B0020048C0020148C00202DE9F04F20
:10582800DFF8ECA0384F9AF80020DFF8E890374E00
:1058380085B00021104608E040FA01F3DB070AD4DE
:105848000131082906F5805657D059F8042F57F822
:10585800043F9342F0D0CDE9012002F1080E02F591
:10586800816834460391AEF1080C25461CF8011BEB
:105878009CF807304A0823F0550B02F055025B00EC
:1058880042EA0B0201F0550103F0AA030B43002082
:105898009109C2F3810B61F3070000216BF3070143
:1058A8004FEA931B6BF30F20C3F3810B6BF30F21AC
:1058B800C2F3011B02F0030262F317416BF31740B6
:1058C800C3F3011203F0030362F31F6063F31F6164
:1058D800E6452860696005F10805C7D10EF1100E8C
:1058E800F04504F14004BED10399DDE901200131FE
:1058F80008293A6006F58056A7D100238AF80030B7
:1059080005B0BDE8F08F00BFFC05002064AD0020A5
:105918005AAD0020602D012038B53D4D3D4C2A88F8
:1059280023881AB93C4AD25C012A66D03B483C4AD3
:1059380000783C4910703C4A09783C4811703C4A50
:1059480000783C4910703C4A09783C4811703C4A40
:105958003C49007810703C4A09781170B3F5837F90
:1059680036D001339BB2F02B23802BD0F32B03D0FE
:10597800002B2FD0002038BD344A2B881288344899
:105988009A4288BF0133334A8CBF9BB200232B80D5
:105998001268314B8024002104701970002A30D01D
:1059A8002E4B1B6898472E4A2E492F481DF00AFE99
:1059B8002E4B93F90030002B17DB294B186840F366
:1059C800000038BD2B88002BD4D11DF0F5FDD1E7A0
:1059D80000232380264B1E4A5B79002111700BB9E6
:1059E8002B888BB1FFF7BAFEC4E7224B00221A704E
:1059F8001B4B186840F30000E3E7FFF79DFB238883
:105A080094E719F0ABFFCBE7FFF708FFEAE700BF21
:105A180050AD00203CAC00207C2A0020908B002058
:105A2800088C002039AC00201C8C0020882B00201A
:105A3800A48B0020702A00205BAD0020892B002059
:105A4800EE8B0020682A0020988B00208800002018
:105A5800712A002020060020108C0020308C0020A5
:105A68008C4B0020188C0020FC8B002038AC0020C8
:105A780040AD0020E5A402202DE9F84F2D4F2E4E11
:105A88002E4C2F4DDFF8D880DFF8D890DFF8D8A05B
:105A98003B883268934203D118F80330012B23D096
:105AA80071201AF075FD238871339BB247F2844246
:105AB8009342238010D999F8001069B1AAFB030119
:105AC800890B02FB11331F4A1F49238000230B70E7
